:030000000206FFF6
:0C06FF00787FE4F6D8FD75812B020746D9
:100A6100EF1FAC0670011E4C600A7D027CEFDCFEBC
:040A7100DDFC80EC3C
:010A7500225E
:1009B200A2AFE433F50BC2AF1209E97FCC120A03EE
:0B09C2007F44120A03E50B24FF92AFF4
:0109CD002207
:10078B00A2AFE433F50CC2AF1209E97FCC120A0316
:10079B007FBE120A031209958F0B120995E50C24E3
:0307AB00FF92AF0B
:1007AE00EFFEE50BFFFDAC06EC120243E4FBFA791B
:0607BE00807841120117D2
:0107C4002212
:060A9C00C2A58F80D2A765
:080AA2007F027EEFDEFEDFFCA7
:010AAA002229
:0A0AAB00C2A6120A9CC2A7020AA20A
:10095A00CFCDCFCECCCE12033C7C007D0A12033C15
:04096A00ED2430FF49
:0A096E00D2A6120A9CC2A7020AA238
:100A4B00AE07BE0104ED148006BE0209ED243F443F
:060A5B0080FF120AAB222D
:100A76007F38120AAB7F0C120AAB7F06120AAB7FD5
:040A860001020AABB4
:0A0AB500AC03120A4BAF0402096EF5
:0608F3008B0B8A0C890D3D
:1008F900120A4BE4FDAB0BAA0CA90D8D827583007E
:0C0909001202FDFF600612096E0D80E96D
:0109150022BF
:0C0870007F0AEA24FFFDE434FFFC7E0058
:08087C008E108F118C128D13F8
:100884007F017E00E4FBEBC39513E5126480F874EA
:0E0894008098500AAC10AD1112032A0B80E8B8
:0108A2002233
:040978008A0D8B0E4B
:10097C00120A4BAA0FEAD39400400D120870AC0D6A
:08098C00AD0E12095A1A80EDAC
:010994002240
:1007C500120A4BC3EA64809480400B7F2B12096E9A
:1007D5008A198B1A800E7F2D12096EC3E49BF51AB8
:1007E500E49AF519AA18EAD39400400D120870ACE2
:0907F50019AD1A12095A1A80ED1F
:0107FE0022D8
:0407FF008A1D8B1EA6
:10080300120A4BAA1FEAD3940040297F10120872E0
:10081300AC1DAD1ECFCDCFCECCCE12033CEF540FCB
:10082300FEC3940AEE5004243080022437FF1209D9
:040833006E1A80D1E8
:01083700229E
:040838008A228B2362
:10083C00120A4BAA24EAD394004028EA24FFFDE4D0
:10084C0034FFFC7F027E0012087CAC22AD23CFCD9E
:10085C00CFCECCCE12033CEF54012430FF12096EE4
:03086C001A80D21D
:01086F002266
:1008A30054656D70657261747572653A0054656D57
:1008B30070657261747572653A0D0A00204C657635
:0C08C300656C3A002053706565643A00D3
:10046D001209B27FE87E03120A61120A767BFF7AC7
:10047D000879A37D017F011208F3120A347BFF7AFC
:10048D000879B01208CF1209CEE4FF12093812090B
:10049D00B212078B8F298E288D278C26E4FFFEFD47
:1004AD00FCAB29AA28A927A8261201B450217B2D1F
:1004BD007D017F02120AB575252DAF29AE28AD2716
:1004CD00AC2612022D8F298E288D278C26800C7B31
:1004DD002B7D017F02120AB575252BAF29AE28ADF4
:1004ED0027AC2612027CAB07AA06750F037D027F8F
:1004FD00021209787B2E7D057F02120AB57F007EE0
:10050D00407D1C7C46AB29AA28A927A82612000EDF
:10051D0012027CE47B107A27F9F81203CD750F04D3
:10052D007D067F021209787BDF7D0A7F02120AB5F4
:0E053D007B437D0B7F02120AB5AF251200032F
:10054B00AF29AE28AD27AC2612027C8E088F097C12
:10055B00007D6412033C7C007D0A12033CED2430C9
:10056B00FF120003AE08AF097C007D0A12033C7C2E
:10057B00007D0A12033CED2430FF120003AE08AFDE
:0F058B00097C007D0A12033CED2430FF120003AF
:05059A007F2E1200039A
:10059F007F007E407D1C7C46AB29AA28A927A82670
:1005AF0012000E12027CE47B107A27F9F81203CDA9
:1005BF00AE02AF038E088F097C037DE812033C7CEB
:1005CF00007D0A12033CED2430FF120003AE08AF8A
:1005DF00097C007D6412033C7C007D0A12033CED14
:1005EF002430FF120003AE08AF097C007D0A12030E
:1005FF003C7C007D0A12033CED2430FF120003AE59
:10060F0008AF097C007D0A12033CED2430FF120075
:01061F0003D7
:0F0620007FA11200037FE31200037F4312000348
:10062F00E4FFFE7DC87C41AB29AA28A927A8261282
:10063F0001B45005E4F5088035E4FFFE7DD87C4118
:10064F00AB29AA28A927A8261201B45005750801BD
:10065F00801CE4FFFE7DF07C41AB29AA28A927A8C6
:10066F00261201B450057508028003750803AF0800
:10067F001209387BFF7A0879BF1208CFE5082430BA
:0D068F00FF1200037BFF7A0879C71208CF25
:10069C00120AC67509008F0AAE097C007D6412032C
:1006AC003C7C007D0A12033CED2430FF120003AEAB
:1006BC0009AF0A7C007D0A12033C7C007D0A120300
:1006CC003CED2430FF120003AE09AF0A7C007D0A1A
:0A06DC0012033CED2430FF1200036E
:0506E6007F2512000356
:1006EB007F0D1200037F0A1200037FE87E03120ABC
:0406FB006102049BF9
:1009E900D2B7C2B77FF7DFFED2B77F20DFFEA2B74B
:0909F900E433FE7FF7DFFEAF06D8
:010A020022D1
:100A8A00C2B77E04DEFEEF24FF92B77E18DEFED2E6
:010A9A00B7A4
:010A9B002238
:100A1C00C2B77F02DFFED2B77F02DFFEA2B7E4339C
:070A2C00FE7F18DFFEAF069C
:010A330022A0
:020A0300AD073D
:100A0500E4FC7401A804088002C333D8FC5DFF121E
:060A15000A8A0CBC08EC8B
:010A1B0022B8
:10099500E4FDFC120A1CEF600D7401A80408800236
:0C09A500C333D8FC42050CBC08E9AF05C8
:0109B1002223
:100A340075985053877FE589540F4420F589758D47
:070A4400FD758BFDD28E222F
:080003008F993099FDC299228A
:0608CF008B0B8A0C890D61
:1008D500E4FDFCAB0BAA0CA90D8D828C831202FDE5
:0D08E500FF600A1200030DBD00010C80E64B
:0108F20022E3
:060ABF00012B00012A00DA
:1009CE00C290D291C292E58954F04402F589758C99
:0B09DE009C758A9CD2A9D2AFD28C225B
:03000B00020916D1
:10091600C0E0C0D0052AE52AC394644003752A00C6
:10092600E52AC3952B5004D2928002C292D0D0D031
:02093600E032AD
:10093800C290D291EF14600A14600B14600C240367
:10094800800C752B4622752B5322752B6422E4F5F7
:020958002B2250
:030AC600AF2B2231
:10000E00EC4D6011E8497017ED33EC3304600DE4EC
:10001E00FCFFFEFD22E933E8330470F80202E81219
:10002E0002B358046009E4CC24815006285009021A
:10003E0002F22840030202EFC0E0EB4A7044B9809E
:10004E0006D0E0FB0202DEEF4E701CBD8008EBFF17
:10005E00EAFEE9FD80EBE98DF0A4FEE5F00200F783
:10006E00E9CDF9EAFEEBFFEF89F0A4FCE5F0CE89CD
:10007E00F0A42EFFE435F0CD89F0A42DFEE435F08A
:10008E008067EF4E7005BD80D780C3EF8BF0A4ACB8
:10009E00F0EE8BF0A42CFCE435F0F8EF8AF0A42CF3
:1000AE00E5F038FCE433CB8DF0A42CFCE5F03BF806
:1000BE00EE8AF0A42CFCE5F038F8E433CF89F0A4F6
:1000CE002CFCE5F038CF3400CE89F0A42FFFE5F0FC
:1000DE003EFEE433C98DF0A42EFEE5F039CD8AF054
:1000EE00A42FFFE5F03EFEE43DFD33D0E0FB5007CC
:1000FE000BBB000F0202F2EC2CFCEF33FFEE33FED3
:06010E00ED33FD0202CA00
:100114000202F2EC5D046005E8590470030202E88F
:100124001202B3580460F6EC4860F2EC7004FDFE71
:10013400FF22C860DB2481C85009C39860025006BE
:100144000202EF9850CAF582E9294B4A7005AB8246
:100154000202DE75F0007C1A7880C3EF9BEE9AED04
:1001640099400DC3EF9BFFEE9AFEED99FDE842F036
:10017400DC23ACF0D0E0FFD0E0FED0E0FDAB822089
:10018400E7101BEB60BAEC2CFCEF33FFEE33FEED13
:1001940033FD0202CAE803F830E705C0F075F00049
:1001A400EF2FFFEE33FEED33FD40B830E7C280AAF7
:1001B40074F8CC6480CCC86480C8F58204604FC3F2
:1001C400EB9FF5F0EA9E42F0E99D42F0E89C45F091
:1001D400603C501DE5825FFFE582D313CB5BCBF41B
:1001E4002B5582FB50280ABA002409B90020088044
:1001F4001DE5825BFBE582D313CF5FCFF4C3132FDE
:100204005582FF50090EBE00050DBD00010CC3EB65
:100214009FF5F0EA9E42F0E99D42F0E89C45F060CB
:0902240007CC4820E701B3EC22ED
:10022D00ED33EC33600A047003BD8004ECB2E7FCDF
:01023D00229E
:10023E0075F020800E75F010800575F0087D007E3B
:10024E00007F003392D530D50312045FEC3340109B
:10025E00EF33FFEE33FEED33FDEC33FCD5F0ED2244
:0E026E00E5F0247EA2D513CC92E7CDCEFF2280
:10027C00EDD2E7CD33EC3392D524814006E4FFFE7A
:10028C00FDFC22FCE4CFCECDCC24E0501174FF80D9
:10029C00EDC3CC13CCCD13CDCE13CECF13CF047076
:0702AC00F030D5DE02045F13
:1002B300E9D2E7C933E833F892D5EDD2E7CD33EC91
:0702C30033FC5002B2D5220A
:1002CA00EC30E7100FBF000C0EBE00080DBD000495
:1002DA000BEB6014A2D5EB13FCED92E7FD2274FF41
:1002EA00FCFDFEFF22E480F8A2D574FF13FC7D809A
:0302FA00E480EFAE
:10070B0002046DE493A3F8E493A34003F68001F293
:10071B0008DFF48029E493A3F85407240CC8C333EF
:10072B00C4540F4420C8834004F456800146F6DFBE
:10073B00E4800B0102040810204080900ABFE47E85
:10074B00019360BCA3FF543F30E509541FFEE493B3
:10075B00A360010ECF54C025E060A840B8E493A37A
:10076B00FAE493A3F8E493A3C8C582C8CAC583CAA5
:10077B00F0A3C8C582C8CAC583CADFE9DEE780BE5D
:010AC5000030
:1002FD00BB010CE58229F582E5833AF583E02250B6
:10030D0006E92582F8E622BBFE06E92582F8E222FF
:0D031D00E58229F582E5833AF583E4932219
:10032A00EF8DF0A4A8F0CF8CF0A428CE8DF0A42EE7
:02033A00FE22A1
:10033C00BC000BBE0029EF8DF084FFADF022E4CCA5
:10034C00F875F008EF2FFFEE33FEEC33FCEE9DEC6E
:10035C00984005FCEE9DFE0FD5F0E9E4CEFD22EDB4
:10036C00F8F5F0EE8420D21CFEADF075F008EF2FFE
:10037C00FFED33FD4007985006D5F0F222C398FDEF
:05038C000FD5F0EA228C
:1003910075F008758200EF2FFFEE33FECD33CDCC23
:1003A10033CCC58233C5829BED9AEC99E5829840A6
:1003B1000CF582EE9BFEED9AFDEC99FC0FD5F0D683
:1003C100E4CEFBE4CDFAE4CCF9A88222B800C1B9AD
:1003D1000059BA002DEC8BF084CFCECDFCE5F0CBEB
:1003E100F97818EF2FFFEE33FEED33FDEC33FCEB24
:1003F10033FB10D703994004EB99FB0FD8E5E4F9DF
:10040100FA227818EF2FFFEE33FEED33FDEC33FCCB
:10041100C933C910D7059BE99A4007EC9BFCE99ABF
:10042100F90FD8E0E4C9FAE4CCFB2275F010EF2F04
:10043100FFEE33FEED33FDCC33CCC833C810D70704
:100441009BEC9AE899400AED9BFDEC9AFCE899F83F
:0E0451000FD5F0DAE4CDFBE4CCFAE4C8F922D2
:0E045F00C3E49FFFE49EFEE49DFDE49CFC22AE
:00000001FF
